{
  "contractName": "crud",
  "abi": [
    {
      "constant": true,
      "inputs": [],
      "name": "nextID",
      "outputs": [
        {
          "internalType": "uint256",
          "name": "",
          "type": "uint256"
        }
      ],
      "payable": false,
      "stateMutability": "view",
      "type": "function"
    },
    {
      "constant": true,
      "inputs": [
        {
          "internalType": "uint256",
          "name": "",
          "type": "uint256"
        }
      ],
      "name": "users",
      "outputs": [
        {
          "internalType": "uint256",
          "name": "id",
          "type": "uint256"
        },
        {
          "internalType": "string",
          "name": "name",
          "type": "string"
        }
      ],
      "payable": false,
      "stateMutability": "view",
      "type": "function"
    },
    {
      "constant": false,
      "inputs": [
        {
          "internalType": "string",
          "name": "_name",
          "type": "string"
        }
      ],
      "name": "create",
      "outputs": [],
      "payable": false,
      "stateMutability": "nonpayable",
      "type": "function"
    },
    {
      "constant": true,
      "inputs": [
        {
          "internalType": "uint256",
          "name": "_id",
          "type": "uint256"
        }
      ],
      "name": "read",
      "outputs": [
        {
          "internalType": "string",
          "name": "name",
          "type": "string"
        }
      ],
      "payable": false,
      "stateMutability": "view",
      "type": "function"
    },
    {
      "constant": false,
      "inputs": [
        {
          "internalType": "uint256",
          "name": "_id",
          "type": "uint256"
        },
        {
          "internalType": "string",
          "name": "updatedName",
          "type": "string"
        }
      ],
      "name": "update",
      "outputs": [
        {
          "internalType": "string",
          "name": "updated",
          "type": "string"
        }
      ],
      "payable": false,
      "stateMutability": "nonpayable",
      "type": "function"
    },
    {
      "constant": false,
      "inputs": [
        {
          "internalType": "uint256",
          "name": "_id",
          "type": "uint256"
        }
      ],
      "name": "deleteUser",
      "outputs": [
        {
          "internalType": "string",
          "name": "successMsg",
          "type": "string"
        }
      ],
      "payable": false,
      "stateMutability": "nonpayable",
      "type": "function"
    }
  ],
  "bytecode": "0x608060405234801561001057600080fd5b50610a81806100206000396000f3fe608060405234801561001057600080fd5b50600436106100625760003560e01c80631e96917d14610067578063365b98b21461008557806338f1484514610133578063b6a46b3b146101da578063ed2e5a9714610295578063f745630f1461033c575b600080fd5b61006f61047a565b6040518082815260200191505060405180910390f35b6100b16004803603602081101561009b57600080fd5b8101908080359060200190929190505050610480565b6040518083815260200180602001828103825283818151815260200191508051906020019080838360005b838110156100f75780820151818401526020810190506100dc565b50505050905090810190601f1680156101245780820380516001836020036101000a031916815260200191505b50935050505060405180910390f35b61015f6004803603602081101561014957600080fd5b8101908080359060200190929190505050610549565b6040518080602001828103825283818151815260200191508051906020019080838360005b8381101561019f578082015181840152602081019050610184565b50505050905090810190601f1680156101cc5780820380516001836020036101000a031916815260200191505b509250505060405180910390f35b610293600480360360208110156101f057600080fd5b810190808035906020019064010000000081111561020d57600080fd5b82018360208201111561021f57600080fd5b8035906020019184600183028401116401000000008311171561024157600080fd5b91908080601f016020809104026020016040519081016040528093929190818152602001838380828437600081840152601f19601f82011690508083019250505050505050919291929050505061060c565b005b6102c1600480360360208110156102ab57600080fd5b810190808035906020019092919050505061068f565b6040518080602001828103825283818151815260200191508051906020019080838360005b838110156103015780820151818401526020810190506102e6565b50505050905090810190601f16801561032e5780820380516001836020036101000a031916815260200191505b509250505060405180910390f35b6103ff6004803603604081101561035257600080fd5b81019080803590602001909291908035906020019064010000000081111561037957600080fd5b82018360208201111561038b57600080fd5b803590602001918460018302840111640100000000831117156103ad57600080fd5b91908080601f016020809104026020016040519081016040528093929190818152602001838380828437600081840152601f19601f82011690508083019250505050505050919291929050505061079d565b6040518080602001828103825283818151815260200191508051906020019080838360005b8381101561043f578082015181840152602081019050610424565b50505050905090810190601f16801561046c5780820380516001836020036101000a031916815260200191505b509250505060405180910390f35b60015481565b6000818154811061048d57fe5b9060005260206000209060020201600091509050806000015490806001018054600181600116156101000203166002900480601f01602080910402602001604051908101604052809291908181526020018280546001816001161561010002031660029004801561053f5780601f106105145761010080835404028352916020019161053f565b820191906000526020600020905b81548152906001019060200180831161052257829003601f168201915b5050505050905082565b606060008090505b60008054905081101561060557826000828154811061056c57fe5b90600052602060002090600202016000015414156105f8576000818154811061059157fe5b90600052602060002090600202016000808201600090556001820160006105b891906108df565b50506040518060400160405280600681526020017f5375636573730000000000000000000000000000000000000000000000000000815250915050610607565b8080600101915050610551565b505b919050565b6000604051806040016040528060015481526020018381525090806001815401808255809150509060018203906000526020600020906002020160009091929091909150600082015181600001556020820151816001019080519060200190610676929190610927565b5050505060016000815480929190600101919050555050565b606060008090505b6000805490508110156107965782600082815481106106b257fe5b906000526020600020906002020160000154141561078957600081815481106106d757fe5b90600052602060002090600202016001018054600181600116156101000203166002900480601f01602080910402602001604051908101604052809291908181526020018280546001816001161561010002031660029004801561077c5780601f106107515761010080835404028352916020019161077c565b820191906000526020600020905b81548152906001019060200180831161075f57829003601f168201915b5050505050915050610798565b8080600101915050610697565b505b919050565b606060008090505b6000805490508110156108d75783600082815481106107c057fe5b90600052602060002090600202016000015414156108ca5782600082815481106107e657fe5b9060005260206000209060020201600101908051906020019061080a9291906109a7565b506000818154811061081857fe5b90600052602060002090600202016001018054600181600116156101000203166002900480601f0160208091040260200160405190810160405280929190818152602001828054600181600116156101000203166002900480156108bd5780601f10610892576101008083540402835291602001916108bd565b820191906000526020600020905b8154815290600101906020018083116108a057829003601f168201915b50505050509150506108d9565b80806001019150506107a5565b505b92915050565b50805460018160011615610100020316600290046000825580601f106109055750610924565b601f0160209004906000526020600020908101906109239190610a27565b5b50565b828054600181600116156101000203166002900490600052602060002090601f016020900481019282601f1061096857805160ff1916838001178555610996565b82800160010185558215610996579182015b8281111561099557825182559160200191906001019061097a565b5b5090506109a39190610a27565b5090565b828054600181600116156101000203166002900490600052602060002090601f016020900481019282601f106109e857805160ff1916838001178555610a16565b82800160010185558215610a16579182015b82811115610a155782518255916020019190600101906109fa565b5b509050610a239190610a27565b5090565b610a4991905b80821115610a45576000816000905550600101610a2d565b5090565b9056fea265627a7a72315820c7f577574a427f13ffa5638555ae1ec21e3326001939ce6fcd68e47a9fd078d864736f6c63430005100032",
  "source": "// SPDX-License-Identifier: MIT\r\npragma solidity >=0.4.22 <0.9.0;\r\n\r\ncontract crud {\r\n    struct Person {\r\n        uint id;\r\n        string name;\r\n    }\r\n\r\n    Person[] public users;\r\n    uint public nextID;\r\n    function create(string memory _name) public {\r\n        users.push(Person(nextID,_name));\r\n        // users.push(Person({id:1,name:_name})); Alternative Syntax\r\n        nextID++; \r\n    }\r\n\r\n  //function read(uint _id) view public returns(uint,string memory)   Alternative Syntax\r\n\r\n    function read(uint _id) view public returns(string memory name) {\r\n        for(uint i =0; i < users.length;i++) {\r\n            if(users[i].id == _id) {\r\n                return users[i].name;\r\n            }\r\n        }\r\n    }\r\n\r\n    function update(uint _id,string memory updatedName) public returns(string memory updated) {\r\n        for(uint i =0; i < users.length;i++) {\r\n            if(users[i].id == _id ) {\r\n                users[i].name = updatedName;\r\n                return (users[i].name);\r\n            }\r\n        }\r\n    } \r\n\r\n\r\n    function deleteUser(uint _id) public returns(string memory successMsg) {\r\n        for(uint i=0; i < users.length; i++) {\r\n            if(users[i].id == _id) {\r\n                delete users[i];\r\n                return \"Sucess\";\r\n            }\r\n        }\r\n    }\r\n\r\n }",
  "sourcePath": "C:\\Users\\arulj\\Desktop\\Dapp\\crud\\contracts\\crud.sol",
  "compiler": {
    "name": "solc",
    "version": "0.5.16+commit.9c3226ce.Emscripten.clang"
  },
  "schemaVersion": "3.4.3",
  "updatedAt": "2021-11-03T15:56:49.987Z",
  "networkType": "ethereum",
  "devdoc": {
    "methods": {}
  },
  "userdoc": {
    "methods": {}
  }
}